:020000040000FA
:02000000812954
:040002000034003492
:100200008207203420342034443469347334743405
:1002100061346E346334653420343D34203420340A
:100220002034503472346F34673420344D346534A4
:100230006E34753420344334723465346434693434
:1002400074343C345234413434343E342034203419
:1002500020342034203420343C345234423430347E
:100260003E342034203420342034203420342034D0
:1002700020342034203463346D342034203420344E
:1002800020342034433465342034703472346F3475
:100290006A3465347434203476346F34753473348E
:1002A00020346534733474342034703472346534DB
:1002B000733465346E34743465342034703461348E
:1002C0007234203446346C346F347234693461349F
:1002D0006E342034533469346C34763461342034D1
:1002E0002034203465347434203445347234693415
:1002F000633420345434723461346E342034203406
:100300002034192383160313A43098001930990060
:1003100083120313903098000C110B119501960174
:100320008E018F0110140915CD3081000B1D962907
:100330000B11091181000B1D9B290B110915CD30E3
:1003400081000B1DA1290B11091181000B1DA6298C
:100350000B110915CD3081000B1DAC290B110911B2
:1003600081000B1DB1290B110915CD3081000B1D2A
:10037000B7290B11091181000B1DBC290B1109159F
:10038000CD3081000B1DC2290B11091181000B1DFD
:10039000C7290B110915CD3081000B1DCD290B117B
:1003A000091181000B1DD2290B110915CD308100D7
:1003B0000B1DD8290B11091181000B1DDD290B1113
:1003C0000915CD3081000B1DE3290B1109118100A6
:1003D0000B1DE8290B110C1DEB29831203131608C2
:1003E00083120313D000831203131508831203131F
:1003F000D100831203130C113030B000902283120D
:1004000003130030B0006F22831203134630D30071
:100410000A128A1515208A015008BD005108BE0035
:10042000E7223C232030A20042232030A2004223B6
:100430002030A20042232030A20042232030A2001C
:1004400042232030A20042234108CA223708A200DA
:1004500042234208CA223708A20042234308CA2284
:100460003708A2004223831203130A30990083162F
:100470000313981C392A831203130D309900831635
:100480000313981C412ABC22BC22BC2283120313F2
:100490008C29831203134030B0006F2283120313A0
:1004A0005030B0009022BC22BC22BC22BC22BC2214
:1004B000BC22BC22BC22831203136030B0006F2226
:1004C000831203137030B0009022BC22BC22BC22E5
:1004D000BC22BC22BC22BC22BC22831203133623C2
:1004E000831203131030B10001308A00300800215C
:1004F000A200422383120313B00AB10B742A8312A1
:1005000003130A30990083160313981C852A83125B
:1005100003130D30990083160313981C8D2A0800CD
:100520003C23831203131030B10001308A003008DD
:100530000021A200422383120313B00AB10B952AB3
:10054000831203130A30990083160313981CA62AFA
:10055000831203130D30990083160313981CAE2ADF
:10056000080083120313FF30B2008330B300B20BD4
:10057000B72AB30BB72A080083120313FF30B20067
:10058000B3000530B400B20BC32AB30BC32AB40BBB
:10059000C32A080083120313B901B801B7006430FD
:1005A0003702031CD62AB700B90ACF2A0A3037020D
:1005B000031CDD2AB700B80AD62A3908303AB90038
:1005C0003808303AB8003708303AB70000343D0EEA
:1005D0000F39F03EC000C007E23EC100323EC3000A
:1005E0003D080F39C107C107C307E93EC200C20772
:1005F000C2073E0E0F39C207C307C20DC30DC309A0
:10060000C30D3E080F39C307C00D0730BF000A30C5
:10061000C307C203031C082BC207C103031C0C2B16
:10062000C107C003031C102BC007BF03031C142BFE
:1006300000348312031389018316031300308900E9
:10064000C83081008312031383120313053097000F
:100650008316031304308700831203138C010516DD
:0C0660009010901610120614532308008E
:04066C0083120313DF
:100670008030A2004F23080083120313C030A20071
:100680004F23080022240314D72383120313990055
:1006900083160313981C4A2B831203130800222489
:1006A0000310D72308008316031388138312031340
:1006B0008817332485018316031308138812081240
:1006C0000E30831603139F00FF3083120313A00024
:1006D000FF3083120313A1002924A00B6B2B2030C1
:1006E000A2000310B323FF30A000FF30A100292493
:1006F000A00B762B2030A2000310B323FF30A10003
:1007000029248030A2000310B323FF30A100292444
:100710000030A2000310B323C030A2000310B323A3
:100720002C240030A2000310B3231030A2000310C9
:10073000B3235E245E245E245E240030A2000310F6
:10074000B3232030A2000310B3235E245E245E2472
:100750005E245E245E245E244E30A2002224031414
:10076000D7232C240800031C08120318081688122B
:100770008316031308108810081188110000000068
:10078000831203130817A21F8811A21B8815221FAA
:100790000811221B0815A21E8810A21A8814221EF6
:1007A0000810221A08140000000008130800B323E0
:1007B00083120313A20EB32383120313A20E0800A5
:1007C000831603130814881408158815831203135D
:1007D000031C0812031808168816000000000817EA
:1007E0000000000000000000881DA3138819A31753
:1007F000081D231308192317881CA3128818A31691
:10080000081C23120818231608130000000000001B
:1008100000000000000000000000081700000000B9
:10082000881DA3118819A315081D23110819231564
:10083000881CA3108818A314081C2310081823145C
:1008400008130800682408000310E023A31B222CCF
:100850000800A10B292C080083120313A10100003A
:10086000A10B2F2C08002C242C242C242C242C24E9
:100870002C242C242C242C242C242C242C242C24F8
:100880002C242C242C242C242C242C242C242C24E8
:100890002C242C242C242C242C242C242C242C24D8
:1008A0002C242C242C242C242C242C242C242C24C8
:1008B0002C242C242C242C242C2408002C242C2400
:1008C0002C242C242C242C242C242C242C240800F0
:0808D0002C242C242C24080028
:10100000D1010830D8005008D30C03180B28D80B96
:101010000428D001003403101028D30C0318D00783
:10102000D00CD10CD80B0D280800D5010830D80001
:10103000500DD50D5308D50203182028D5070310ED
:10104000D00DD80B1828D7010830D800510DD50D78
:10105000D70D5308D502D2010301031C520FD7024A
:1010600003183A285308D507D20103010318520F79
:0C107000D7070310D10DD80B262808006C
:02400E007A3FF7
:00000001FF
