:020000040000FA
:02000000C12914
:040002000034003492
:100200008207203420342034443469347334743405
:1002100061346E346334653420343D34203420340A
:100220002034503472346F34673420344D346534A4
:100230006E34753420344334723465346434693434
:1002400074343C345234413434343E342034203419
:1002500020342034203420343C345234423430347E
:100260003E342034203420342034203420342034D0
:100270002034203420346D346D3420342034203444
:1002800020342034433465342034703472346F3475
:100290006A3465347434203476346F34753473348E
:1002A00020346534733474342034703472346534DB
:1002B000733465346E34743465342034703461348E
:1002C0007234203446346C346F347234693461349F
:1002D0006E342034533469346C34763461342034D1
:1002E0002034203465347434203445347234693415
:1002F000633420345434723461346E342034203406
:1003000020342034613476346534633420346C34E2
:10031000273461346934643465342034643465349A
:100320002034433468347234693473347434693437
:1003300061346E3420345234693470346F346C3428
:100340006C34463465347234693461346C3420342E
:100350005634693472346F346C346C3465346134BF
:10036000753420346534743420344134763469343F
:10037000643420344E34613465346D34693420344F
:1003800020348E2383160313A4309800193099006B
:100390008312031390309800831203131030B000BF
:1003A000E422831203132030B00005233123061802
:1003B000DA29782A051AD729DD290C110B119501A4
:1003C00096018E018F0110140915CD3081000B1D8F
:1003D000E7290B11091181000B1DEC290B110915DF
:1003E000CD3081000B1DF2290B11091181000B1D6D
:1003F000F7290B110915CD3081000B1DFD290B11BB
:10040000091181000B1D022A0B110915CD30810045
:100410000B1D082A0B11091181000B1D0D2A0B1150
:100420000915CD3081000B1D132A0B110911810014
:100430000B1D182A0B110C1D1B2A831203131608FF
:1004400083120313D00083120313150883120313BE
:10045000D100831203130C113030B0000523831236
:1004600003130030B000E422831203134630D3009C
:100470000A128A1515208A015008BD005108BE00D5
:100480005C23B0232030A200B6232030A200B62384
:100490002030A200B6232030A200B6232030A200D4
:1004A000B6232030A200B62341083F233708A2001C
:1004B000B62342083F233708A200B62343083F2350
:1004C0003708A200B623831203130A30990083165B
:1004D0000313981C692A831203130D3099008316A5
:1004E0000313981C712A312331230618DD29CC29E6
:1004F000831203134030B000E42283120313503000
:10050000B00005233123312331233123312331231B
:1005100031233123831203136030B000E4228312AD
:1005200003137030B00005233123312331233123ED
:100530003123312331233123831203136030B00080
:10054000E422831203137030B000052331233123DA
:1005500031233123312331233123312383120313F8
:100560006030B000E422831203137030B000052322
:1005700031233123312331233123312331233123DB
:10058000831203138030B000E422831203139030EF
:10059000B00005233123312331233123312331238B
:1005A0003123312383120313A030B000E4228312DD
:1005B0000313B030B0000523831203130618E12A99
:1005C000782A051ADE2ACC29AA23831203131030B5
:1005D000B10001308A0030080021A200B623831246
:1005E0000313B00AB10BE92A831203130A309900EE
:1005F00083160313981CFA2A831203130D309900F3
:1006000083160313981C022B0800B02383120313D4
:100610001030B10001308A0030080021A200B6235A
:1006200083120313B00AB10B0A2B831203130A308F
:10063000990083160313981C1B2B831203130D3090
:10064000990083160313981C232B080083120313AD
:10065000FF30B2008330B300B20B2C2BB30B2C2B2A
:10066000080083120313FF30B200B3000530B4005A
:10067000B20B382BB30B382BB40B382B080083127A
:100680000313B901B801B70064303702031C4B2BC8
:10069000B700B90A442B0A303702031C522BB700AB
:1006A000B80A4B2B3908303AB9003808303AB8004C
:1006B0003708303AB70000343D0E0F39F03EC00025
:1006C000C007E23EC100323EC3003D080F39C107FA
:1006D000C107C307E93EC200C207C2073E0E0F3979
:1006E000C207C307C20DC30DC309C30D3E080F39AE
:1006F000C307C00D0730BF000A30C307C203031C85
:100700007D2BC207C103031C812BC107C003031C3F
:10071000852BC007BF03031C892B003483120313EE
:1007200089018316031300308900C83081008312C9
:100730000313831203130530970083160313051662
:10074000061404308700831203138C0190100516E1
:04075000C7230800B3
:0C075400831203138030A200C3230800AE
:1007600083120313C030A200C3230800962403148D
:100770004B2483120313990083160313981CBE2B7A
:10078000831203130800962403104B2408008316D9
:1007900003138813831203138817A7248501831674
:1007A00003130813881208120E30831603139F00D8
:1007B000FF3083120313A000FF3083120313A10044
:1007C0009D24A00BDF2B2030A20003102724FF3034
:1007D000A000FF30A1009D24A00BEA2B2030A20036
:1007E00003102724FF30A1009D248030A2000310B5
:1007F0002724FF30A1009D240030A20003102724ED
:10080000C030A20003102724A0240030A20003104F
:1008100027241030A20003102724D224D224D2246B
:10082000D2240030A200031027242030A20003109D
:100830002724D224D224D224D224D224D224D224B3
:100840004E30A200962403144B24A0240800031C5D
:10085000081203180816881283160313081088104C
:100860000811881100000000831203130817A21F4B
:100870008811A21B8815221F0811221B0815A21E11
:100880008810A21A8814221E0810221A08140000C8
:10089000000008130800272483120313A20E272444
:1008A00083120313A20E080083160313081488147E
:1008B0000815881583120313031C08120318081661
:1008C000881600000000081700000000000000006B
:1008D000881DA3138819A317081D231308192317AC
:1008E000881CA3128818A316081C231208182316A4
:1008F00008130000000000000000000000000000DD
:100900000000081700000000881DA3118819A31516
:10091000081D231108192315881CA3108818A31477
:10092000081C23100818231408130800DC240800EE
:1009300003105424A31B962C0800A10B9D2C080027
:1009400083120313A1010000A10BA32C0800A02413
:10095000A024A024A024A024A024A024A024A02477
:10096000A024A024A024A024A024A024A024A02467
:10097000A024A024A024A024A024A024A024A02457
:10098000A024A024A024A024A024A024A024A02447
:10099000A024A024A024A024A024A024A024A02437
:1009A000A0240800A024A024A024A024A024A024E3
:1009B000A024A024A0240800A024A024A02408008F
:10100000D1010830D8005008D30C03180B28D80B96
:101010000428D001003403101028D30C0318D00783
:10102000D00CD10CD80B0D280800D5010830D80001
:10103000500DD50D5308D50203182028D5070310ED
:10104000D00DD80B1828D7010830D800510DD50D78
:10105000D70D5308D502D2010301031C520FD7024A
:1010600003183A285308D507D20103010318520F79
:0C107000D7070310D10DD80B262808006C
:02400E007A3FF7
:00000001FF
