:020000040000FA
:02000000812954
:040002000034003492
:100200008207203420342034443469347334743405
:1002100061346E346334653420343D34203420340A
:100220002034503472346F34673420344D346534A4
:100230006E34753420344334723465346434693434
:1002400074343C345234413434343E342034203419
:1002500020342034203420343C345234423430347E
:100260003E342034203420342034203420342034D0
:1002700020342034203463346D342034203420344E
:1002800020342034433465342034703472346F3475
:100290006A3465347434203476346F34753473348E
:1002A00020346534733474342034703472346534DB
:1002B000733465346E34743465342034703461348E
:1002C0007234203446346C346F347234693461349F
:1002D0006E342034533469346C34763461342034D1
:1002E0002034203465347434203445347234693415
:1002F000633420345434723461346E342034203406
:1003000020341C2383160313A4309800193099005D
:10031000831203139030980006188C298F290C1132
:100320000B11950196018E018F0110140915CD3026
:1003300081000B1D99290B11091181000B1D9E29AC
:100340000B110915CD3081000B1DA4290B110911CA
:1003500081000B1DA9290B110915CD3081000B1D42
:10036000AF290B11091181000B1DB4290B110915BF
:10037000CD3081000B1DBA290B11091181000B1D15
:10038000BF290B110915CD3081000B1DC5290B119B
:10039000091181000B1DCA290B110915CD308100EF
:1003A0000B1DD0290B11091181000B1DD5290B1133
:1003B0000915CD3081000B1DDB290B1109118100BE
:1003C0000B1DE0290B110915CD3081000B1DE6290D
:1003D0000B11091181000B1DEB290B110C1DEE29CE
:1003E00083120313160883120313D000831203131E
:1003F000150883120313D100831203130C1130303C
:10040000B0009322831203130030B00072228312D3
:1004100003134630D3000A128A1515208A015008AA
:10042000BD005108BE00EA223F232030A200452330
:100430002030A20045232030A20045232030A20016
:1004400045232030A20045232030A2004523410847
:10045000CD223708A20045234208CD223708A2004A
:1004600045234308CD223708A200452383120313F6
:100470000A30990083160313981C3C2A8312031335
:100480000D30990083160313981C442ABF2283124F
:1004900003130618492A8F29831203134030B00032
:1004A0007222831203135030B0009322BF22BF2266
:1004B000BF22BF22BF22BF22BF22BF22831203134B
:1004C0006030B0007222831203137030B0009322A8
:1004D000BF22BF22BF22BF22BF22BF22BF22BF2214
:1004E000831203133923831203131030B100013038
:1004F0008A0030080021A200452383120313B00AAA
:10050000B10B772A831203130A3099008316031361
:10051000981C882A831203130D3099008316031345
:10052000981C902A08003F23831203131030B10057
:1005300001308A0030080021A200452383120313F2
:10054000B00AB10B982A831203130A30990083165C
:100550000313981CA92A831203130D3099008316E4
:100560000313981CB12A080083120313FF30B20052
:100570008330B300B20BBA2AB30BBA2A0800831235
:100580000313FF30B200B3000530B400B20BC62A2B
:10059000B30BC62AB40BC62A080083120313B90191
:1005A000B801B70064303702031CD92AB700B90A72
:1005B000D22A0A303702031CE02AB700B80AD92A27
:1005C0003908303AB9003808303AB8003708303ABC
:1005D000B70000343D0E0F39F03EC000C007E23EC8
:1005E000C100323EC3003D080F39C107C107C30730
:1005F000E93EC200C207C2073E0E0F39C207C30759
:10060000C20DC30DC309C30D3E080F39C307C00D8A
:100610000730BF000A30C307C203031C0B2BC207FD
:10062000C103031C0F2BC107C003031C132BC007FE
:10063000BF03031C172B0034831203138901831695
:10064000031300308900C830810083120313831222
:1006500003130530970083160313043087008312B9
:1006600003138C01051690109016101206145623D1
:02067000080080
:0E067200831203138030A2005223080083126B
:100680000313C030A2005223080025240314DA23E8
:1006900083120313990083160313981C4D2B8312A6
:1006A0000313080025240310DA230800831603131C
:1006B00088138312031388173624850183160313C6
:1006C0000813881208120E30831603139F00FF30A0
:1006D00083120313A000FF3083120313A1002C2404
:1006E000A00B6E2B2030A2000310B623FF30A00019
:1006F000FF30A1002C24A00B792B2030A200031086
:10070000B623FF30A1002C248030A2000310B623B2
:10071000FF30A1002C240030A2000310B623C0300B
:10072000A2000310B6232F240030A2000310B6232A
:100730001030A2000310B6236124612461246124D7
:100740000030A2000310B6232030A2000310B6230D
:1007500061246124612461246124612461244E3078
:10076000A20025240314DA232F240800031C0812F6
:10077000031808168812831603130810881008112E
:10078000881100000000831203130817A21F8811AC
:10079000A21B8815221F0811221B0815A21E8810F3
:1007A000A21A8814221E0810221A08140000000041
:1007B00008130800B62383120313A20EB623831274
:1007C0000313A20E080083160313081488140815D7
:1007D000881583120313031C0812031808168816C1
:1007E0000000000008170000000000000000881D45
:1007F000A3138819A317081D231308192317881C8E
:10080000A3128818A316081C23120818231608130D
:1008100000000000000000000000000000000000D8
:10082000081700000000881DA3118819A315081DD2
:10083000231108192315881CA3108818A314081C59
:10084000231008182314081308006B240800031051
:10085000E323A31B252C0800A10B2C2C08008312DA
:100860000313A1010000A10B322C08002F242F2418
:100870002F242F242F242F242F242F242F242F24E0
:100880002F242F242F242F242F242F242F242F24D0
:100890002F242F242F242F242F242F242F242F24C0
:1008A0002F242F242F242F242F242F242F242F24B0
:1008B0002F242F242F242F242F242F242F242F24A0
:1008C00008002F242F242F242F242F242F242F24DB
:0E08D0002F242F2408002F242F242F2408006B
:10100000D1010830D8005008D30C03180B28D80B96
:101010000428D001003403101028D30C0318D00783
:10102000D00CD10CD80B0D280800D5010830D80001
:10103000500DD50D5308D50203182028D5070310ED
:10104000D00DD80B1828D7010830D800510DD50D78
:10105000D70D5308D502D2010301031C520FD7024A
:1010600003183A285308D507D20103010318520F79
:0C107000D7070310D10DD80B262808006C
:02400E007A3FF7
:00000001FF
